:020000040800F2
:10000000884E0020DD010008EF3000086F2B00084B
:10001000ED30000829090008453B000800000000F9
:100020000000000000000000000000004501000882
:10003000BB0A00080000000089010008F130000838
:10004000F7010008F7010008F7010008F7010008B0
:10005000F7010008F7010008F7010008F7010008A0
:10006000F7010008F7010008F7010008250A000859
:10007000310A00083D0A0008490A0008550A00082C
:10008000610A00086D0A0008F7010008F70100087E
:10009000F7010008F7010008F7010008F701000860
:1000A000F7010008F7010008F7010008F701000850
:1000B000F7010008F7010008F7010008F701000840
:1000C000F7010008F7010008F7010008F701000830
:1000D000F7010008F13A00080D3B0008293B000831
:1000E000F7010008F7010008F7010008F701000810
:1000F000C5310008F7010008F7010008F701000802
:10010000F7010008F7010008F7010008F7010008EF
:100110002D380008F7010008F7010008F701000872
:10012000F7010008F7010008790A0008850A0008AD
:10013000DFF80CD000F022FB004800471D3E00080D
:10014000884E0020224B19680868B0E8F00F80F351
:100150000988BFF36F8F4FF0000080F311884EF0D5
:100160000D0E70470000000006480068006880F32C
:10017000088862B661B6BFF34F8FBFF36F8F00DFA1
:1001800000BF00BF08ED00E0EFF30980BFF36F8F01
:100190000F4B1A6820E9F00F106008B54FF05000BF
:1001A00080F31188BFF34F8FBFF36F8F05F0D2F844
:1001B0004FF0000080F31188BDE808401968086816
:1001C000B0E8F00F80F30988BFF36F8F704700BF6E
:1001D00028000020EFF305807047000006488047A4
:1001E00006480047FEE7FEE7FEE7FEE7FEE7FEE71C
:1001F000FEE7FEE7FEE7FEE77D310008310100087B
:10020000202A04DB203A21FA02F00021704721FA6B
:1002100002F3D040C2F120029140084319467047D2
:1002200040EA01039B0703D009E008C9121F08C078
:10023000042AFAD203E011F8013B00F8013B521EF8
:10024000F9D27047D2B201E000F8012B491EFBD26F
:1002500070470022F6E710B513460A4604461946D1
:10026000FFF7F0FF204610BDF0B480EA0102D40F82
:100270004200B2EB410F02D20246084611464A0044
:1002800042D0C30DDDB2C1F3C752AD1A202D35DA0D
:10029000C1F3160141F4000204B15242C5F1200637
:1002A00002FA06F12A411044B3EBD05F23D0C4B167
:1002B000012DA0EBC35009DCF0BC4FF0004202EA74
:1002C000C352DBB200F5000000F0CDB9400000F1F0
:1002D000807000EBC350A0F1807040EAD1704900FB
:1002E00009E0490841EAC071A0EBC35000F50000E5
:1002F000400800EBC350F0BC00F0ACB961420122F1
:1003000002EB4101001BF6E7F0BC704781F00041B1
:10031000AAE780F00040A7E730B480EA010202F0CB
:10032000004530F0004221F0004013D090B1C30DE1
:10033000D40DC2F31601C0F31600E41A41F4000113
:1003400040F400027D34914201D3641C00E0490076
:10035000002C02DA30BC002070474FF4000000236C
:10036000914201D3891A034340084FEA4101F7D172
:1003700051B1914202D14FF0004105E002D24FF05D
:10038000010101E06FF0010103EBC450284430BCCF
:1003900000F060B92DE9FE4F81EA030404F0004447
:1003A00021F0004100944FF0000B23F0004350EA8D
:1003B00001045ED052EA03045BD0C3F30A54C1F3D4
:1003C0000A552C44A4F2F3340194A0FB0254C1F367
:1003D000130141F48011C3F3130343F4801301FBB1
:1003E000024400FB034E840A970A44EA815447EA18
:1003F0008357A4FB076802958D0A05FB07854FEA22
:10040000932C04FB0C542705029D4FEA065847EA3B
:100410001637B5EB08056EEB070C870E920E47EA10
:10042000811742EA8312A7FB0201B6EB0B0164EBD2
:1004300000042B0D43EA0C335E1844EB1C50DA46E3
:100440005146E7FB0201C5F313044FEA0B3343EABD
:1004500014534FEA0432019C43EA0603A4F10C044E
:100460000294009CCDE900B400F03AF903B0BDE875
:10047000F08F00200146F9E72DE9F04D81EA0304F1
:1004800004F0004B21F0004514464FF0000A23F021
:10049000004150EA050220D054EA01021DD0C5F304
:1004A0000A570246C5F31303C1F31300C1F30A56FA
:1004B00040F4801543F48013A7EB0608101BD646C2
:1004C00008F2FD3873EB050002D308F1010801E0E2
:1004D00092185B41B8F1000F03DA00200146BDE835
:1004E000F08D00204FF48011064684460EE0171B65
:1004F00073EB050705D3121B63EB050306434CEAB8
:10050000010C49084FEA300092185B4150EA01079C
:10051000EDD152EA030012D082EA040083EA050119
:10052000084305D0101BAB4106D20122002306E090
:1005300000224FF0004302E06FF0010253101AEB6B
:1005400006004CEB085110EB0A0041EB0B01BDE833
:10055000F04D00F0B6B870B521F0004303430CD065
:10056000C1F30A550024D5EB040564EB0403D61748
:10057000AD1AB34102DB0020014670BD201841EBEB
:10058000025170BD96230022114600F06CB870B580
:10059000C1F30A5201F000450024C1F3130140F2F7
:1005A000FF3341F480119A4201DA002070BD40F21D
:1005B00033439A42A2F2334203DC5242FFF720FE59
:1005C00000E090402C43F1D0404270BD00F000426A
:1005D00030F000400AD0C10D01F56071C0F3160083
:1005E00042EA0151C208400711437047002001460A
:1005F000704701F0004330B421F0004150EA01029D
:1006000006D00A0DA2F56072C1F31301002A02DCC4
:1006100030BC00207047440F44EAC104C100E01818
:1006200030BC00EBC25000F015B80000002801DB20
:10063000C0F10040002901DBC1F100418142704757
:10064000002801DBC0F10040002901DBC1F10041BD
:10065000884270470029A8BF7047401C490008BF66
:1006600020F00100704710B4B0FA80FC00FA0CF0E2
:1006700050EA010404BF10BC704749B1CCF120041A
:1006800021FA04F411FA0CF118BF012121430843A7
:10069000A3EB0C01CB1D4FEA00614FEA102042BFD3
:1006A000002010BC704700EBC35010440029A4BFC9
:1006B00010BC7047401C490008BF20F0010010BC6E
:1006C000704710B5141E73F1000408DA401C41F1A4
:1006D000000192185B411A4301D120F0010010BDC6
:1006E0002DE9F04D92469B4611B1B1FA81F202E03C
:1006F000B0FA80F22032904600F052F804460F46DD
:1007000040EA0A0041EA0B0153465A46084313D017
:10071000114653EA010019D0C8F140025046FFF7D4
:100720006FFD05460E4650465946424600F038F8E1
:10073000084305D0012004E020463946BDE8F08D8D
:100740000020054346EAE0762C4337430A986305C8
:10075000E40AA0EB08000022FD0A44EA47540A30EC
:1007600002D500200146E9E7010510196941DDE9DC
:10077000084500196941BDE8F04DA2E7064C074D58
:1007800006E0E06840F0010394E807009847103461
:10079000AC42F6D3FFF7D0FC3C6000085C60000878
:1007A000202A04DB203A00FA02F100207047914031
:1007B000C2F1200320FA03F319439040704730B58B
:1007C0008C1810F8012B12F00F0301D110F8013B27
:1007D000120906D110F8012B03E010F8015B01F8B3
:1007E000015B5B1EF9D101E001F8013B521EFBD118
:1007F000A142E6D3002030BD70B504460068816890
:10080000C943C9071CD1816821F00101816000F052
:10081000B1FF05460FE000BF00F0ACFF401B02280F
:1008200009D9A06A40F01000A062E06A40F001001F
:10083000E062012070BD20688068C043C007EBD033
:10084000002070BD10B50146406A826A12F0500F58
:1008500005D0006A026BBDE8104008461047816A67
:1008600041F40071816201688968C1F3424107293E
:100870000CD1017B51B9816A21F480718162816A56
:10088000C90403D4816A41F00101816200F0FAF9E0
:1008900010BD10B5406A816A41F040018162C16AB1
:1008A00041F00401C16200F0EFF910BD10B5406ADB
:1008B00000F0E9F910BD0000F8B5002604460096E6
:1008C00000688168C943C90728D0816841F00101E7
:1008D0008160134813490068B0FBF1F000E0401E4E
:1008E00000900028FBD100F045FF054611E000BF55
:1008F00000F040FF401B02280BD9A06A40F0100016
:10090000A062E06A40F00100E06284F82460012007
:10091000F8BD20688068C043C007E9D10020F8BD59
:100920002400002040420F00FEE700002DE9F041C6
:100930001A4D07462968FFF783FE02D81848BDE81C
:10094000F0810024384655F82410FFF76FFE20D2BE
:1009500005EB840041683846FFF772FE19D805EBB5
:100960008400466855F824003146FFF7CFFC054661
:1009700031463846FFF7CAFC2946FFF7CDFC05464D
:10098000A4F11300FFF7FEFD2946BDE8F041FFF793
:10099000BDBC641C502CD5D30248D0E7CC0100204C
:1009A0000000A0C1000070422DE9F0411A4D074639
:1009B0002968FFF745FE02D81848BDE8F0810024F9
:1009C000384655F82410FFF731FE20D205EB84009D
:1009D00041683846FFF734FE19D805EB84004668B5
:1009E00055F824003146FFF791FC0546314638465C
:1009F000FFF78CFC2946FFF78FFC0546A4F1130096
:100A0000FFF7C0FD2946BDE8F041FFF77FBC641C3D
:100A1000502CD5D30248D0E7880000200000A0C1A8
:100A200000007042014800F0FDBB000054030020AC
:100A3000014800F0F7BB000058080020014800F012
:100A4000F1BB000014080020014800F0EBBB0000DF
:100A500048070020014800F0E5BB00000407002023
:100A6000014800F0DFBB00008C070020014800F0C7
:100A7000D9BB0000D0070020014800F0D3BB000024
:100A80007C060020014800F0CDBB0000C00600201D
:100A900030B590F840500124AC40C56B6C600468E0
:100AA00063604368102B036803D099600068C260DC
:100AB00030BD9A600068C16030BD7047704700006B
:100AC000F8B500250446009590F82400012808D0C8
:100AD000012084F824002046FFF78EFE060002D095
:100AE0004BE00220F8BDA06A20F4885040F00200DC
:100AF000A062022000F0FCFE22490968B1FBF0F080
:100B0000400000E0401E00900028FBD12046FFF787
:100B1000D3FE2068816841F00801816000F02AFE60
:100B2000074604E000F026FEC01B0A2811D8206802
:100B300080680007F6D42068816841F00401816074
:100B400000F018FE07460EE000F014FEC01B0A2855
:100B500009D9A06A20F0020040F01000A06284F8D9
:100B600024500120F8BD206880684007ECD4A06ABA
:100B700020F0020040F00100A06284F824503046CA
:100B8000F8BD000024000020F8B50024009490F87F
:100B900024202546012A12D0012280F824204A6808
:100BA0001F23072A0DD20668776B521E02EB8202C2
:100BB00093409F430B6893401F43776319E00220E3
:100BC000F8BD06680D2A0AD2376BD21F02EB8202EB
:100BD00093409F430B6893401F43376309E0F76AD4
:100BE0000D3A02EB820293409F430B6893401F43F0
:100BF000F7620A68072306680A2A0AD3F7680A3ADE
:100C000002EB420293409F438B6893401F43F7607F
:100C100008E0376902EB420293409F438B689340A0
:100C20001F4337610A68102A01D0112A20D1124BC4
:100C300002689A4217D193681B0219D4936843F44F
:100C4000000393600968102912D10C490C4A096805
:100C5000B1FBF2F101EB8101490000E0491E009176
:100C60000029FBD104E0816A41F020018162012466
:100C700080F824502046F8BD0024014024000020C4
:100C800040420F0070477047704700002DE9F04167
:100C900004004FF000057FD0A06A002628B9E66264
:100CA00084F82460204600F081F82046FFF7A4FD78
:100CB000A16AC90600D420B1A06A40F01000A06269
:100CC0006AE0A16A21F4885141F00201A16233492E
:100CD00023688B42E16904D1B1F5402F01D14FF473
:100CE0000021277B4FF4807C41EA470261680A4378
:100CF000A168614508D0012906D0002194F814E0CC
:100D0000BEF1010F02D00AE06146F7E7C7B1A76A5A
:100D100047F02007A762E76A47F00107E7625F68CC
:100D200027F469470F435F60236899681C4F394077
:100D300011439960A16861450BD0012909D00CE0ED
:100D4000DFF860E0A7690EEB47370F4347F4006117
:100D5000E5E7218A0D05A5F580152168CB6A23F406
:100D600070032B43CB62216889680F4B1940914275
:100D700008D1E662A16A21F0020141F00101A162FD
:100D8000BDE8F081A06A20F0020040F01000A062EF
:100D9000E06A40F00100E0620120F1E7003C014020
:100DA000FDF7E1FF00E0FFFFFE0E1FFF70B586B00C
:100DB0000025064600950195029503950068214996
:100DC00088423DD12049886940F400708861886973
:100DD00000F400700490886940F010008861886910
:100DE00000F010000490886940F004008861886970
:100DF000032400F0040004900C20CDE900046946AF
:100E0000124800F0A9FBCF20CDE900046946104844
:100E100000F0A2FB104C0F48C4E900058020C4E993
:100E2000025080002061800060612020C4E9060536
:100E3000204600F01BFB08B1FFF740FE34626662FB
:100E400006B070BD002401400010024000100140B7
:100E50000008014008000240540300202DE9F0473B
:100E6000894604463B4900683B4F0E1D9046884228
:100E700001D0B84207D1306810F4702F03D001259B
:100E80002846BDE8F08794F8240001280CD0012002
:100E900084F824002046FFF70FFD05004FF0000006
:100EA00004D084F82400EBE70220EAE7A16A40F6C8
:100EB0000162914341F48071A1622168B94218D165
:100EC000326812F4702F14D0A16A41F48011A1622B
:100ED0003168490505D5A16A21F4005141F48051DA
:100EE000A162A16AC9040AD5E16A21F00601E162A2
:100EF00006E0A26A22F48012A2624968E9E7E06291
:100F000084F82400216A15488862216A1448C8625E
:100F1000216A1448086321686FF0020008602068A5
:100F2000816841F480718160216843464A464C31B2
:100F3000206A00F0D9FA20688168C1F3424107298C
:100F4000816803D041F48011816099E741F4A001E8
:100F5000FAE700000024014000280140450800088D
:100F6000AD0800089308000870B54379012B20D024
:100F700001254571022303710668346802F01003ED
:100F800040F6FE729A409443D1E900210A439A4008
:100F90002243326002681468C02199408C43146077
:100FA000026813688B431360057100214171084684
:100FB00070BD022070BD70B5040003D020790025FB
:100FC00010B105E0012070BD6571204600F008F801
:100FD00002202071256101202071002070BD0000D9
:100FE00000B585B000210091019102910391006844
:100FF0000E49884218D10E48C16941F00051C161C3
:10100000C16901F000510491816941F004018161DD
:101010008069694600F004000490302000900320AD
:101020000190044800F098FA05B000BD007400403B
:10103000001002400008014018B5046800940068E0
:10104000104421B1143000900360002018BD083016
:10105000F9E770B54279012A1ED0012242710223BC
:1010600003710468266801F0100302FA03F52E43A9
:1010700026600029016811D00C6804F470153C2426
:101080009C40A54203D14B6843F002034B600271C0
:1010900000214171084670BD022070BD0B68C3F38A
:1010A00083030F2BF3D14B6843F00103EEE710B538
:1010B00090F821100022022905D00421816380F8D4
:1010C0002020012010BD01680B6823F00E030B6087
:1010D00001680B6823F001030B6090F84030C46B8B
:1010E000012101FA03F3636080F8211080F82020C9
:1010F000104610BD2DE9F05F90F821100024022960
:1011000003D004218163012485E001680A6822F08C
:101110000E020A6001680A6822F001020A603F4E6E
:101120003E4FB215DFF8F4C0DFF8F090DFF8ECA026
:10113000DFF8E8B0DFF8E4E00168783F130115025A
:10114000ACF1640CA9F15009AAF13C0AABF1280BEF
:10115000AEF1140E4FF48018B14227D9B9420ED027
:10116000614512D049451DD0514518D0594518D078
:10117000714501D1424615E0294EB14201D101220B
:1011800010E0274E1436B14201D110220AE0244E5D
:101190002836B14206D0224A3C32914201D11A4649
:1011A00000E02A461E49091F0A602BE0B94213D00D
:1011B000614517D0494522D051451DD059451DD014
:1011C000714501D142461AE0B14202D14FF080721E
:1011D00015E0134EB14201D1012210E0104E143639
:1011E000B14201D110220AE00D4E2836B14206D09C
:1011F0000B4A3C32914201D11A4600E02A46074987
:1012000080394A60012180F82110002180F82010E7
:10121000416B01B188472046BDE8F09F8000024045
:10122000080402402DE9F05FC16B0A6801680B6891
:10123000046C4FF0040808FA04F8844D844E854F7E
:10124000DFF814C2DFF81492DFF814A2DFF814B24A
:10125000DFF814E218EA020F65D05FEA437862D53E
:101260000A68920603D40A6822F004020A60DFF8D2
:10127000F0814FF48062016808F114081301140230
:10128000414524D9A9420DD0B1420FD0B9421AD05C
:10129000614515D0494515D0514501D1120312E0E1
:1012A000594501D104220EE0714501D140220AE0E6
:1012B0006D4D1435A94206D06B4A2832914201D1B6
:1012C0001A4600E022466749091F0A6029E0A94240
:1012D00013D0B14215D0B94220D061451BD0494549
:1012E0001BD0514502D14FF4800217E0414502D195
:1012F0004FF0806212E0594501D104220EE07145A1
:1013000001D140220AE0584D1435A94206D0564A70
:101310002832914201D11A4600E022464B49083951
:101320004A60C16A71E04FF0020808FA04F818EA4E
:10133000020F70D05FEA83786DD50A68920606D4F2
:101340000A6822F00A020A60012180F82110DFF801
:1013500010814FF40072016808F11408130114029F
:10136000414524D9A9420DD0B1420FD0B9421AD07B
:10137000614515D0494515D0514501D1120312E000
:10138000594501D102220EE0714501D120220AE027
:10139000354D1435A94206D0334A2832914201D145
:1013A0001A4600E022462F49091F0A6029E0A94297
:1013B00013D0B14215D0B94220D061451BD0494568
:1013C0001BD0514502D14FF4001217E0414502D124
:1013D0004FF0007212E0594501D102220EE0714532
:1013E00001D120220AE0204D1435A94206D01E4A20
:1013F0002832914201D11A4600E0224613490839A9
:101400004A60002180F82010816A00291CD0BDE8C4
:10141000F05F0847FFE70825A540154214D01A07DA
:1014200012D50A6822F00E020A6090F84020C36BC1
:10143000012101FA02F25A60816380F82110002133
:1014400080F82010016BE0E7BDE8F09F0800024043
:101450001C0002403000024044000240580002409C
:101460006C000240080402401C04024030B560B128
:101470001A4B026814219A4209D2194B1344B3FB48
:10148000F1F18900016417490AE0012030BD134BD6
:101490005B421344B3FBF1F1890001640F49083941
:1014A000C163022180F82110136843F6F0718B4369
:1014B000F0E901142143D0E902452C43214304699A
:1014C0002143446921438469214319431160002168
:1014D0004163012242770177084630BD080402408B
:1014E000F8FFFDBF0000024070B5044690F82000F0
:1014F000002501280CD0012084F8200094F82160F8
:101500000020012E06D084F820000225284670BD58
:10151000022070BD022684F82160A063206806685E
:1015200026F0010606602046FFF7B2FAE06A0028BE
:101530002068016802D041F00E0106E021F00401AC
:1015400001602068016841F00A01016020680168BB
:1015500041F001010160D9E72DE9F84FDFF8C891AA
:10156000002409F1040A0AF1040B23460F270BF1AA
:10157000040ED1E00125A54006EA0502AA4276D173
:10158000DFF8A8C14E68A6EB0C0866452BD00DDC31
:10159000032E34D005DC36B3012E19D0022E2FD104
:1015A0001BE0112E16D0122E2AD119E0B8F5881F93
:1015B00019D006DCB8F5803F15D0B8F5801F1FD1D3
:1015C00011E0B8F5001F0ED0B8F5041F18D10AE0DD
:1015D000CB6815E0CB681B1D12E0CB6808330FE029
:1015E000CB680C330CE08B682BB1012B4FF0080358
:1015F00003D0456104E0042302E0056100E000231C
:10160000FF2A01D8064601E000F104064FEA8405EE
:1016100001D9A5F12005D6F8008007FA05FC28EAD3
:101620000C0803FA05F548EA0508C6F800804D687D
:10163000ED0070D53E4DAE6946F00106AE61AD6974
:1016400024F0030605F0010500953A4D06EB050C64
:10165000DCF80850A607360F07FA06F825EA080551
:10166000DFF8D480404503D14FF0000825E052E078
:10167000DFF8C880404502D14FF001081DE0DFF8D7
:10168000C080404502D14FF0020816E0DFF8B48078
:10169000404502D14FF003080FE0DFF8AC80404531
:1016A00002D14FF0040808E0DFF8A080404502D1E5
:1016B0004FF0050801E04FF0060808FA06F848EA7E
:1016C0000508CCF808804D68D9F80060ED034D4658
:1016D00001D5164300E096432E604D68DAF80060AD
:1016E000AD03554601D5164300E096432E604D6884
:1016F000DBF80060ED025D4601D5164300E096433D
:101700002E604D68DEF80060AD02754601D51643C7
:1017100000E096432E60641C0A681646E2407FF49F
:1017200029AFBDE8F88F000000040140000011104F
:10173000001002400000014000080140000C014080
:10174000001001400014014000180140001C01403D
:101750008068084000D001207047C2680A4201D06A
:1017600041617047016170470AB101617047090426
:10177000FBE7000001488068704700001800002067
:101780000248816802781144816070471800002087
:10179000074810B5016841F010010160032000F016
:1017A00095F8002000F006F800F03EF8002010BD8B
:1017B0000020024000B5014687B000222C2000F036
:1017C00065F82C2000F054F81348816941F4005169
:1017D0008161806905A900F400500690684600F018
:1017E000FDF900F02BFA0D490D4AB0FBF1F10D485F
:1017F000491E0260416040F2E7320021C0E9032146
:10180000816000F014FC10B1012007B000BD054854
:1018100000F03AFCF9E700000010024040420F00DF
:10182000003401409C0800200F4808B5816941F050
:1018300001018161816901F001010091C16941F0FB
:101840008051C161C069002200F0805000900F21DA
:10185000901E00F01BF80548416821F0E06141F05E
:101860000071416008BD000000100240000001400E
:10187000002809DB00F01F0201219140400980008F
:1018800000F1E020C0F8001170470000F0B40E4BEA
:101890001B680C46C3F30223C3F10705042D00D9CE
:1018A0000425191D072901D2002300E0DB1E0126B3
:1018B00006FA05F1491E214099409E40761E1640C9
:1018C0003143F0BC02F03FB90CED00E0064900F0F6
:1018D000070208684FF6FF03184040EA0220034A57
:1018E00010430860704700000CED00E00000FA05AE
:1018F00010B52CA401461DCC86B08DE81D002DA08E
:101900002D4C00680490002004292FD00BDC012905
:101910002FD0022928D100F091F96168C1F38131FB
:10192000491C49001EE0082920D010291CD16168FB
:101930002268D20118D5C1F38342C9031DF8020001
:1019400009D5616804AAC1F34041515C1B4AB2FB4E
:10195000F1F1484301E01A4948436168490203D460
:1019600040000321B0FBF1F006B010BD00F076F9A5
:10197000FAE7226AC2F30121012903D1920701D5B6
:10198000C803F1E7022905D1626A920702D549F638
:101990004040E9E70329E7D121688903E4D54FF204
:1019A0002440E1E702030405060708090A0B0C0DB1
:1019B0000E0F1010010200000010024000127A0009
:1019C00000093D002DE9F84305460078354CC00775
:1019D00054D0E0690026C00008D4E06940F080508F
:1019E000E061E069012600F0805000902E48016817
:1019F000C90512D40168804641F480710160FFF787
:101A0000B9FE074605E000BFFFF7B4FEC01B64281F
:101A100023D8D8F80000C005F6D5206A10F440702D
:101A200021D0A98801F4407181421CD0206A1F494D
:101A3000012220F440700A6000220A602062C00780
:101A400011D0FFF797FE074641F2883808E000BF43
:101A5000FFF790FEC11B414502D90320BDE8F88382
:101A6000206A8007F4D5206A696820F44070084332
:101A700020621EB1E06920F08050E0612878800784
:101A800005D56068A96820F4404008436060287864
:101A9000C00605D56068696920F48000084360606D
:101AA0000020DBE70010024000700040400442428A
:101AB0002DE9F0470F46050061D0434E306800F035
:101AC0000700B84209D2306820F007003843306080
:101AD000306800F00700B84251D128683B4C8107BC
:101AE00012D5400703D5606840F4E0606060287854
:101AF000000703D5606840F4605060606068A968C2
:101B000020F0F000084360602878C00728D068689B
:101B1000012810D02168022810D0890700292EDA68
:101B2000616821F0030101436160FFF723FE8046F5
:101B300041F288390DE021688903EFE78901EDE77B
:101B4000FFF718FEA0EB0801494502D90320BDE8C4
:101B5000F0876068696800F00C00B0EB810FEFD18E
:101B6000306800F00700B8420BD9306820F0070059
:101B700038433060306800F00700B84201D00120DF
:101B8000E5E72878400705D56068E96820F4E0605B
:101B9000084360602878000706D56068296920F44A
:101BA000605040EAC100606000F058F86168084A7F
:101BB000C1F30311515CC84006490860064800683B
:101BC000FFF7F8FD0020C2E70020024000100240AD
:101BD000E85D0008240000201C0000200F220260A5
:101BE0000C4A536803F003034360536803F0F003A7
:101BF0008360536803F4E063C36052684FF4E063AA
:101C000003EAD20202610448006800F0070008609D
:101C100070470000001002400020024004480549BF
:101C200000684968044AC1F30221515CC84070470A
:101C30002400002000100240F85D00080448054917
:101C400000684968044AC1F3C221515CC84070472A
:101C50002400002000100240F85D000812A185B0A9
:101C60000FC98DE80F0014A0144A00680490516851
:101C7000134801F00C03042B10D0082B0ED1C1F334
:101C80008343C9031DF803000AD5516804AAC1F3B0
:101C90004041515C0A4A5043B0FBF1F005B0704737
:101CA00008494843FAE7000002030405060708094B
:101CB0000A0B0C0D0E0F1010010200000010024064
:101CC00000127A0000093D002DE9F84F040070D0A1
:101CD0002078C04DC00749D06868C0F38100012852
:101CE00007D06868C0F38100022809D16868C00382
:101CF00006D52868800339D560680028E7D035E02C
:101D00006068B0F5803F0BD010B1B0F5A02F11D0B6
:101D1000286820F480302860286820F4802002E0C1
:101D2000286840F480302860606890B1FFF722FD99
:101D300006460AE0286840F480202860F0E700BFEB
:101D4000FFF718FD801B642873D828688003F7D537
:101D50000CE0FFF70FFD064605E000BFFFF70AFDA8
:101D6000801B6428F0D828688003F7D420789A4E26
:101D700080074FF001094FF0000839D5686810F06E
:101D80000C0F07D06868C0F38100022809D1686889
:101D9000C00306D42868800714D52069012808D11B
:101DA00010E02069B0B1C6F80090FFF7E3FC0746E9
:101DB00005E00AE1FFF7DEFCC01B0228C4D8286852
:101DC0008007F7D52868616920F0F80040EAC10073
:101DD00028600DE0C6F80080FFF7CCFC074604E061
:101DE000FFF7C8FCC01B022823D828688007F7D457
:101DF000207800072CD57948A169D9B1C0F80090A6
:101E0000FFF7B8FC074604E0FFF7B4FCC01B02284C
:101E10000FD8686A8007F7D571484FF4FA51006807
:101E2000B0FBF1F0009000BF0098411E0091FAD283
:101E30000EE080E0C0F80080FFF79CFC074604E05D
:101E4000FFF798FCC01B022875D8686A8007F7D492
:101E50002078400760D5E8690027C00008D4E86909
:101E600040F08050E861E869012700F08050009060
:101E70005C480168C90513D40168834641F4807148
:101E80000160FFF777FC824606E000BFFFF772FCB7
:101E9000A0EB0A0064284ED8DBF80000C005F5D599
:101EA000E06801280AD008B1052813D0286A20F07C
:101EB00001002862286A20F0040002E0286A40F04D
:101EC00001002862E06841F2883B98B1FFF752FCBC
:101ED00082460BE0286A40F004002862EEE700BF6B
:101EE000FFF748FCA0EB0A0159455AD8286A800739
:101EF000F6D50CE0FFF73EFC824605E0FFF73AFC22
:101F0000A0EB0A0159454CD8286A8007F6D41FB1C6
:101F1000E86920F08050E861E06988B36968C1F33E
:101F20008101022944D00228C6F8608004D0FFF75E
:101F300021FC044638E034E0FFF71CFC074604E0CF
:101F4000FFF718FCC01B02282BD828688001F7D4A3
:101F5000206AB0F5803F05D16868A16820F40030A0
:101F600008436860D4E908010843696821F47411E2
:101F700008436860C6F86090FFF7FCFB044606E083
:101F800025E000BFFFF7F6FB001B022809D82868F0
:101F90008001F7D51BE000BFFFF7ECFB001B022818
:101FA00002D90320BDE8F88F28688001F4D40EE040
:101FB0000128F7D06868226A00F48031914204D188
:101FC000616A00F47010884201D00120EAE7002025
:101FD000E8E7000000100240000042428004424254
:101FE00024000020007000407047704770B590F8E2
:101FF0003C20012A19D0012400F83C4F02224270F3
:1020000050F83C3C5A689D6822F070060A6849689E
:10201000324325F0800529435A6050F83C2C9160EA
:10202000447000210170084670BD022070BD10B5DB
:10203000040003D094F83D0010B107E0012010BD6A
:10204000002084F83C00204600F00CF8022084F8C0
:102050003D00211D206801F0BBF8012084F83D00FF
:10206000002010BD08B50068B0F1804F08D10548C8
:10207000C16941F00101C161C06900F00100009037
:1020800008BD0000001002400168CA6842F0010269
:10209000CA600068816801F00701062903D0016861
:1020A00041F0010101600020704770B5044690F8CE
:1020B0003C00012817D0012584F83C50022084F808
:1020C0003D002068826822F0770222F47F4282601D
:1020D0000868502830D00DDC20284DD005DC98B39E
:1020E00010283BD148E0022070BD302844D0402861
:1020F00034D139E0602828D0702806D0B0F5805F50
:102100002CD0B0F5005F29D10AE0CB68D1E90121DC
:10211000206801F0B0F82068816841F0770109E09B
:10212000CB68D1E90121206801F0A5F82068816819
:1021300041F48041816011E0CA684968206801F07B
:102140006FF95021206807E016E0CA6849682068E6
:1021500001F077F96021206801F097F884F83D508C
:10216000002084F83C0070BDCA684968206801F00E
:1021700057F940212068EFE7226801461046EBE757
:10218000704770B50446006801694FF00005C94307
:10219000890715D4C168C943890711D4E91E0161B3
:1021A00001202077206880698007204602D0FFF751
:1021B000E7FF04E000F0DAF8204600F05CF925774C
:1021C00020680169C943490717D4C168C943490751
:1021D00013D46FF004010161022020772068806928
:1021E00010F4407F204602D0FFF7CAFF04E000F061
:1021F000BDF8204600F03FF9257720680169C94302
:10220000090716D4C168C943090712D46FF0080141
:102210000161042020772068C0698007204602D031
:10222000FFF7AEFF04E000F0A1F8204600F023F92C
:10223000257720680169C943C90617D4C168C94315
:10224000C90613D46FF010010161082020772068BF
:10225000C06910F4407F204602D0FFF791FF04E0F0
:1022600000F084F8204600F006F92577206801691F
:10227000C943C90708D1C168C943C90704D1891E28
:102280000161204600F01AF920680169C943090676
:1022900009D4C168C943090605D46FF08001016102
:1022A0002046FFF7A1FE20680169C943490609D409
:1022B000C168C943490605D46FF040010161204659
:1022C00000F006F920680169C94389060BD4C1688A
:1022D000C943890607D46FF0200101612046BDE89B
:1022E0007040FFF782BE70BD10B586B0002100912E
:1022F0000191029103910068B0F1804F2BD11748F2
:10230000816941F008018161816901F0080104914E
:10231000816941F0040181618069022400F00400B8
:10232000049040F60840CDE9000469460C48039447
:10233000FFF712F9A003CDE90004694609480394A8
:10234000FFF70AF90848416821F4407141F0E06163
:1023500041F44071416006B010BD00000010024021
:10236000000C01400008014000000140704770B5BA
:10237000044690F83C000D4601280DD0012684F853
:102380003C60022084F83D0042B1042A18D0082A9B
:102390002AD00C2A4DD139E0022070BD206800F00F
:1023A0007DFF2068816941F00801816120688169B1
:1023B00021F004018161206881692A69114311E0DB
:1023C000206800F09BFF2068816941F40061816111
:1023D0002068816921F480618161206881692A69AE
:1023E00041EA0221816124E0206800F0BDFF2068FD
:1023F000C16941F00801C1612068C16921F004018F
:10240000C1612068C1692A69114311E0206800F0A8
:10241000DFFF2068C16941F40061C1612068C169C2
:1024200021F48061C1612068C1692A6941EA022101
:10243000C16184F83D60002084F83C0070BD10B597
:10244000040003D094F83D0010B107E0012010BD56
:10245000002084F83C00204600F00CF8022084F8AC
:102460003D00211D206800F0B3FE012084F83D00EE
:10247000002010BD7047704710B504460068012267
:1024800000F0ECFE0B492068884202D00A498842DD
:1024900003D1416C41F4004141642068816801F03E
:1024A0000701062903D0016841F001010160002005
:1024B00010BD0000002C01400034014000680349B9
:1024C000884201D1FFF75CB9704700000034014039
:1024D000704710B504460068416994F83920C1F38B
:1024E000C011212A0BD151B1416921F08001416114
:1024F000206B08B1FEF7DBFD204601F017FA2068DB
:10250000416994F83A20C1F38011222A0BD151B1CC
:10251000416921F040014161606B08B1FEF7C7FDE0
:10252000204601F0F5F9002010BD704770B5026833
:1025300004461068D168536910F00F0F50D003F0B3
:10254000010501F4907635435DD0C20705D0CA0578
:1025500003D5E26B42F00102E263420705D5DA07D8
:1025600003D0E26B42F00202E263820705D5DA078C
:1025700003D0E26B42F00402E263020705D5DA07FA
:1025800003D0E26B42F00802E263E26B002A33D030
:10259000800604D5880602D5204601F0D0F92068CF
:1025A0004069E16BC0F38010090700D428B32046CE
:1025B00001F0AEF92068416949061AD5416921F058
:1025C00040014161606BA0B11B494163606BFEF744
:1025D00091FD002810D0606B416BBDE8704008474A
:1025E000830610D58B060ED52046BDE8704001F05D
:1025F000A6B92046FFF799FF70BD2046FFF795FF6B
:102600000020E06370BD030606D50B0604D5204606
:10261000BDE8704001F03ABA4006F3D54806F1D55E
:10262000D168204621F04001D160202184F8391082
:1026300000F086FA70BD00003938000870B504005B
:1026400004D094F83900002510B106E0012070BDD7
:1026500084F83850204600F023F8242084F839000C
:102660002068C16821F40051C160204601F0B2F930
:102670002068016921F4904101612068416921F0DD
:102680002A0141612068C16841F40051C160E563DD
:10269000202084F8390084F83A00002070BD000042
:1026A0002DE9F04786B00025009501950295039528
:1026B0000446CF4BD0F800C0CE4802210322102799
:1026C00080264FF480689C4555D1C36943F40023AC
:1026D000C361C36903F400230493836943F01003C7
:1026E00083618069CDE9008100F01000CDE903200D
:1026F000DFF8048369464046FEF72EFF3001CDE93E
:102700000005694640460295FEF726FFDFF8F09285
:10271000BA494846B046C0E90015C0E90256C9F8B2
:102720001050C9F81450C9F81850C9F81C50FEF7D9
:102730009DFE08B1FEF7C2F9B14EB048C4F834901E
:1027400044362830C9F824403060C6E90175C6E92E
:1027500003857561B5613046F561FEF787FE08B106
:10276000FEF7ACF926630022052134207462FFF7DE
:102770008DF834205AE0A34B4FF400799C455AD190
:10278000836943F480438361836903F48043049342
:10279000836943F0040383618069CDE9009100F00F
:1027A0000400CDE90320DFF8609269464846FEF751
:1027B000D3FECDE90085694648460295FEF7CCFE7A
:1027C000DFF83C82914908F188084046B146C0E9EB
:1027D0000015C0E90256C8F81050C8F81450C8F8DF
:1027E0001850C8F81C50FEF741FE08B1FEF766F914
:1027F000834E8648C4F83480CC361438C8F8244058
:102800003060C6E90175C6E903957561B56130466A
:10281000F561FEF72BFE08B1FEF750F926630022A2
:10282000052125207462FFF731F82520FFF720F8F5
:1028300006B0BDE8F087DFF8D881764BDFF8D8A185
:10284000C44568D1D0F81CC04CF4003CC0F81CC092
:10285000D0F81CC00CF4003CCDF810C0D0F818C063
:102860004CF0200CC0F818C08069039200F02000E2
:1028700004902020CDE90001694698461846FEF7ED
:102880006BFE4020CDE90005A94669464046029509
:10289000FEF762FEDAF8041041F0E06141F0080151
:1028A000CAF80410DFF87481584940461431C0E971
:1028B0000015C0E90256C8F81050C8F81450C8F8FE
:1028C0001850C8F81C50FEF7D1FD08B1FEF7F6F815
:1028D000524D4E48C4F8348044352830C8F824405E
:1028E000C5E90007C5E90296C5F81090C5F814902F
:1028F000C5F818902846C5F81C90FEF7B7FD08B13A
:10290000FEF7DCF825630022052126206C62FEF725
:10291000BDFF26208AE7DFF80881C44588D1D0F8BA
:102920001CC04CF4802CC0F81CC0D0F81CC00CF4A7
:10293000802CCDF810C0D0F818C04CF0200CC0F896
:1029400018C08069039200F0200004904FF480705A
:10295000CDE90001694698461846FEF7FDFDCDE930
:102960000095694640460295FEF7F6FDDAF8041038
:1029700021F0300141F0E06141F03001CAF804106B
:10298000DFF89880214908F1880840462839C0E9D5
:102990000015C0E90256C8F81050C8F81450C8F81D
:1029A0001850B146C8F81C50FEF760FD08B1FEF79C
:1029B00085F81A4E1548C4F83480CC363C38C8F82F
:1029C00024403060C6E90175C6E903957561B561BB
:1029D0003046F561FEF74AFD08B1FEF76FF8266351
:1029E0000022052127207462FEF750FF27201DE7F3
:1029F000004C004000100240001001403004024032
:102A00007C060020003801400008014058000240C8
:102A10000044004000140140000001408C070020E9
:102A200000480040F8B5044690F83A0020283CD110
:102A3000C1B3BAB394F83800012836D0012084F825
:102A40003800A162A2850025E563222084F83A00BF
:102A5000636B17489862636B1648D862636B1648BD
:102A60001863606B134645630846666B216802462F
:102A70003046091DFEF738FD206801684168009165
:102A800084F83850C16841F48071C16020684169A0
:102A900041F0010141612068416941F0400141611B
:102AA0000020F8BDFFE70120FBE70220F9E7000066
:102AB00093380008CF38000849380008704770473D
:102AC00070B5044690F83900202830D169B362B35C
:102AD00094F8380001282AD0012084F838002162B7
:102AE000A284E2840025E563212084F83900236B69
:102AF00010489862236B1048D862236B0F48186304
:102B0000206B134645632668206B321DFEF7ECFCF4
:102B100021686FF04000086084F8385020684169EF
:102B200041F080014161002070BD012070BD022094
:102B300070BD0000D938000807390008493800087E
:102B400007490A68824207D006490A68824203D0D0
:102B500005490A68824202D1D1F830040047704723
:102B6000CC31002000360020483A00207047FEE7B4
:102B7000FEB500244048009401943E49029401604F
:102B8000891581600125057304750A2606614FF4D5
:102B900060214460C161FEF779F808B1FDF78EFF4E
:102BA000CDE900450724694633480294FDF7ECFF60
:102BB00008B1FDF783FF0095022569462E4801956F
:102BC000FDF7E2FF08B1FDF779FF0095032569469F
:102BD00029480195FDF7D8FF08B1FDF76FFF0420E4
:102BE000CDE9005069462448FDF7CEFF08B1FDF756
:102BF00065FF06250520CDE9005069461E48FDF712
:102C0000C3FF08B1FDF75AFF69461B48CDE90045EF
:102C1000FDF7BAFF08B1FDF751FF0C20CDE9000424
:102C200069461548FDF7B0FF08B1FDF747FF0D20D5
:102C300000900820019069460F48FDF7A5FF08B1F4
:102C4000FDF73CFF102000900920019069460A48DA
:102C5000FDF79AFF08B1FDF731FF1120CDE900061D
:102C600069460548FDF790FF002801D0FDF726FFD3
:102C7000FEBD000000240140240300201CB50024F8
:102C8000104900940E48019408600846FEF793F935
:102C900008B1FDF713FF009400226946094801942A
:102CA000FEF762F908B1FDF709FF102269460548F1
:102CB000FEF75AF9002801D0FDF700FF1CBD000007
:102CC00000740040980300202D4808B5416941F088
:102CD00001014161416901F001010091416941F047
:102CE000020141614069002200F0020000900521CC
:102CF0000B20FEF7CBFD0B20FEF7BAFD00220521CD
:102D00000C20FEF7C3FD0C20FEF7B2FD00220521CA
:102D10000D20FEF7BBFD0D20FEF7AAFD00220521C8
:102D20000E20FEF7B3FD0E20FEF7A2FD00220521C6
:102D30000F20FEF7ABFD0F20FEF79AFD00220521C4
:102D40001020FEF7A3FD1020FEF792FD00220521C2
:102D50001120FEF79BFD1120FEF78AFD00220521C0
:102D60003A20FEF793FD3A20FEF782FD002205216E
:102D70003B20FEF78BFDBDE808403B20FEF778BD09
:102D80000010024010B59EB0142221496846FDF79C
:102D900047FA0021684601F0B3FA1E4C1C49142280
:102DA0002060143105A8FDF73BFA002105A801F0C9
:102DB000A7FA17496060142228310AA8FDF730FAF3
:102DC00000210AA801F09CFA1149A06014223C31AC
:102DD0000FA8FDF725FA00210FA801F091FA0C4980
:102DE000E0601422503114A8FDF71AFA002114A84B
:102DF00001F086FA064920611422643119A8FDF712
:102E00000FFA002119A801F07BFA60611EB010BD15
:102E1000705D0008000000202DE9F04F85B000240F
:102E200042480094019402940394816941F0100196
:102E30008161816901F010010491816941F004010F
:102E40008161816901F004010491816941F0080107
:102E50008161816901F008010491816941F04001BB
:102E60008161816901F040010491816941F0200193
:102E700081618069DFF8B8A000F020004EF2804642
:102E80000490002231465046FEF76EFCDFF8A4B0F5
:102E90004FF49E58002241465846FEF765FC4FF419
:102EA0001069002249462448FEF75EFC002280217A
:102EB0002248FEF759FC302002258DE83100694692
:102EC0005846FEF749FB07208DE8310069461B484C
:102ED000FEF742FB8027009769461948CDE9014576
:102EE000FEF73AFB00960126694650460196CDE969
:102EF0000245FEF731FBCDE9008669465846CDE92B
:102F00000245FEF729FBCDE9009669460A48CDE95E
:102F10000245FEF721FBCDE9007669460748CDE979
:102F20000245FEF719FB05B0BDE8F08F0010024026
:102F3000001401400010014000080140000C014055
:102F40000018014010B58EB000240794089409942D
:102F50000A940B941C2168460C94FDF77AF92A48D0
:102F60004FF0804101603B21C0E9011440F2E7319C
:102F7000C0E903148461FFF75AF808B1FDF79EFD1C
:102F80004FF48050079007A91F48FFF78EF808B14B
:102F9000FDF794FD1C48FFF752FA08B1FDF78EFDCE
:102FA0000B940BA918480C94FFF720F808B1FDF713
:102FB00085FD6020CDE900040220029000226946D0
:102FC00004941148FFF7D3F908B1FDF777FD042207
:102FD00069460D48FFF7CBF908B1FDF76FFD0822F0
:102FE00069460948FFF7C3F908B1FDF767FD0C22F0
:102FF00069460548FFF7BBF908B1FDF75FFD0248D8
:10300000FFF772F90EB010BD3C0500200C4810B55A
:103010000A4901604FF4E1314160002181600C22D6
:10302000C160C0E904128161C161FFF707FB00289C
:1030300003D0BDE81040FDF741BD10BD004C00407D
:103040007C0500200C4810B50A4901604FF4E131BD
:103050004160002181600C22C160C0E904128161DD
:10306000C161FFF7EBFA002803D0BDE81040FDF77F
:1030700025BD10BD00380140BC0500200C4810B52E
:103080000A4901604FF4E1314160002181600C2266
:10309000C160C0E904128161C161FFF7CFFA002865
:1030A00003D0BDE81040FDF709BD10BD004400404D
:1030B000FC0500200C4810B50A4901604FF4E131CD
:1030C0004160002181600C22C160C0E9041281616D
:1030D000C161FFF7B3FA002803D0BDE81040FDF747
:1030E000EDBC10BD004800403C060020FEE77047E4
:1030F00010B5502080F31188BFF34F8FBFF36F8F4F
:1031000002F0A0FC18B104494FF080500860002084
:1031100080F3118810BD000004ED00E030B595B0DB
:1031200028216846FDF795F814210AA8FDF791F8C3
:1031300018210FA8FDF78DF80224012004900094B7
:103140001020059000254FF45010CDE90850079449
:103150006846FEF7B9FD0AA90F2081E83100600238
:10316000CDE90D0502210AA8FEF7A2FCA0031190EB
:103170000F940FA8FEF726FC15B030BD0D4801686E
:1031800041F00101016041680B4A11404160016852
:103190000A4A11400160016821F480210160416800
:1031A00021F4FE0141604FF41F0181600449C00316
:1031B00008607047001002400000FFF8FFFFF6FEB5
:1031C00008ED00E00148FEF7DCBF00009C0800208D
:1031D000F0B502681C4B1D4D1D4E1E4F1E4C4FF08E
:1031E000804C984209D0A04207D0604505D0A84243
:1031F00003D0B04201D0B84204D122F0700E4A6828
:1032000042EA0E02984209D0A04207D0604505D09C
:10321000A84203D0B04201D0B84203D122F4407595
:10322000CA682A434D6922F080022A4302608A68F4
:10323000C2620A688262984201D0A04201D1096943
:10324000016301214161F0BD002C014000040040F8
:1032500000080040000C00400034014010B501F0AF
:103260001F030121046A99408C430462016A9A4059
:103270001143016210BD10B5846842EA032224F4B0
:103280007F440A432243826010BD826822F07002AC
:103290000A4342F00701816070470000F0B5026AFE
:1032A00022F001020262036A42688469124E24F02D
:1032B00073050C682C4323F002058B682B430D4DDE
:1032C000A84201D0B04205D123F00807CB683B43A8
:1032D00023F00403A84201D0B04205D14D6922F485
:1032E000407215438A692A43426084614968416398
:1032F0000362F0BD002C014000340140F0B5026AC9
:1033000022F010020262026A436884690D6824F4A4
:10331000E64444EA05248D6822F0200242EA0512C0
:103320000F4D104EA84201D0B04206D1CF6822F016
:10333000800242EA071222F04002A84201D0B042C5
:1033400007D14D6923F4406343EA85038D6943EA5D
:10335000850343608461496881630262F0BD0000B7
:10336000002C014000340140F0B5026A22F4807262
:103370000262026A4368C46922F4007224F0730591
:103380000C68124E2C438D6842EA05220E4DA8426D
:1033900001D0B04206D1CF6822F4006242EA07228F
:1033A00022F48062A84201D0B04207D14D6923F4D3
:1033B000405343EA05138D6943EA05134360C46132
:1033C0004968C1630262F0BD002C01400034014035
:1033D00030B5026A22F480520262046A4268C3690C
:1033E0000D6823F4E64343EA05238D6824F4005472
:1033F00044EA0534084DA84202D0084DA84204D141
:103400004D6922F4804242EA85124260C3614968F4
:103410000164046230BD0000002C01400034014012
:1034200010B5036A046A24F001040462846924F07C
:10343000F00444EA021423F00A020A43846102629F
:1034400010BD10B5036A23F0100303628369046A98
:1034500023F4704343EA023224F0A00343EA01114B
:103460008261016210BD00009CB000217448FDF72C
:10347000F0FD40F6FF740022234611467048FDF728
:10348000DBFD10216E48FDF7E4FD234600221021EC
:103490006B48FDF7D1FD6B48FDF712FB64226A49CA
:1034A0006848FDF7DBFCC82000F052FE28210AA87E
:1034B000FCF7CFFE28216846FCF7CBFEDFF88881B9
:1034C00000260AAD002406EB860700BF04EB470187
:1034D00058F82100FDF756F855F82410FCF7C4FE03
:1034E00045F82400641CE4B20A2CEFD3761CF6B233
:1034F0000A2EE7D31398FDF769F8544F00223B4694
:10350000FCF7BAFF02460B4651485249FCF7B4FF9C
:10351000FDF76FF881460024AA46FDF757F80E46DE
:1035200005466FF00B0BE8465AF82400FDF74EF8FD
:1035300000223B46FCF7A0FF2A463346FCF72AFF51
:103540005A46FDF708F8FDF754F848F82400641CC3
:10355000E4B20A2CE8D3DFF800A10024BB4600BF88
:10356000C4F10301484658F821703946FCF7CEFEF5
:10357000FDF72CF805460E463846FDF727F80022E1
:103580005F465B46FCF706FF2A463346FCF774FFAE
:10359000FDF72FF8FDF708FAFDF718F800223B4673
:1035A000FCF7F8FEFCF7F3FF0AEB4402641CE4B2FC
:1035B000A2F80003042CD3D30024C3460BEBC408A9
:1035C0004846D8F814703946FCF7A0FEFCF7FEFF19
:1035D00006460D463846FCF7F9FF1C4F00223B46D5
:1035E000FCF7D8FE32462B46FCF746FFFDF701F804
:1035F000FDF79CF9FCF7EAFF00223B46FCF7CAFE08
:10360000FCF7C5FF0AEB8405A5F80803D8F81000FD
:10361000FCF7DCFF4FF06632104BFCF72DFF002269
:103620000F4BFCF7B7FE00223B46FCF7B3FEFCF75E
:10363000AEFF641CE4B2A5F80A03022CBED332E745
:103640009803002024030020AC0300200000244045
:103650009A9999999999B340883E002066660A40E4
:1036600000005940322000F073FDFBE7034800F0F2
:103670004BFB00BF00F0AEFBFCE70000FC050020A8
:10368000002631465648FEF7F7FE04215448FEF75F
:10369000F3FE08215248FEF7EFFE0C215048FEF7DA
:1036A000EBFEDFF84091DFF840A1504C504D4FF059
:1036B00080484FF4807B322000F04AFD0A20761CBF
:1036C000B6FBF0F100FB11661EB980214846FEF7FB
:1036D00044F8B4F80615C8F83410B4F80415C8F85E
:1036E0003810B4F80215C8F83C10B4F80015C8F842
:1036F000401080213F48FEF72BF8207004214F46F0
:103700004846FEF725F8607002213846FEF720F89B
:10371000A07001213846FEF71BF8E07020212846F2
:10372000FEF716F8207110212846FEF711F8607197
:1037300094F8000108B1012200E000224FF400518A
:1037400057465046FEF710F894F8010108B10122DF
:1037500000E000224FF480413846FEF705F894F867
:10376000020108B1012200E000224FF40041384676
:10377000FDF7FAFF94F8030108B1012200E00022EE
:1037800040212846FDF7F0FF94F8040108B101221A
:1037900000E0002280212846FDF7E6FF94F80501AD
:1037A00008B1012200E000225F4659462846FDF795
:1037B000DBFF94F8060108B1012200E000224FF47B
:1037C00000712846FDF7D0FF94F8070108B10122E7
:1037D00000E0002239460848FDF7C6FF6BE700000D
:1037E0003C050020000C014000140140883E0020F0
:1037F000001001400018014000080140044800F09A
:10380000C1F9642000F0A4FC00F0ECF9F9E7000035
:10381000BC050020044800F029FA642000F098FC60
:1038200000F054FAF9E700003C0600200148FEF7DA
:103830007DBE00007C05002010B5406A0021C185D6
:10384000C184FEF772FE10BD70B5446A20684069FD
:1038500094F83910C0F3C0100025212904D118B103
:10386000E584204600F062F82068406994F83A1038
:10387000C0F38010222904D118B1E585204600F05C
:1038800047F8E06B40F01000E0632046FEF74DFE85
:1038900070BD10B50146406A09680968890613D4ED
:1038A0000021C1850168CA6822F48072CA6001687B
:1038B0004A6922F001024A6101684A6922F0400225
:1038C0004A61202180F83A10FFF7F8F810BD10B5D2
:1038D000406AFFF7F4F810BD10B50146406A096868
:1038E000096889060CD40021C18401684A6922F064
:1038F00080024A610068C16841F04001C16010BDAA
:10390000FFF71EF910BD10B5406AFFF72FF910BD83
:103910000168CA6822F49072CA6001684A6922F09C
:1039200001024A61202180F83A1070470168CA6894
:1039300022F0C002CA60202180F83910704710B50B
:1039400090F83A10222901D0022010BD8168B1F50B
:10395000805F11D00169002901681FD0496801F01A
:103960007F03816A4A1C82620B70C18D491E090463
:10397000090CC18518D02BE00269816A002A02680F
:10398000526805D0D2B20A80816A491C8162ECE794
:10399000C2F308020A80816A891CF7E74A68816AD3
:1039A0004B1C83620A70E0E70168CA6822F02002BB
:1039B000CA600168CA6822F48072CA6001684A69F4
:1039C00022F001024A61202180F83A10FFF776F8D0
:1039D000002010BD2DE9F041044600680169E2684D
:1039E00021F44051114301612169A06808436169D4
:1039F00008432168CA6841F20C639A430243CA60D3
:103A000020684169A26921F44071114341611E4956
:103A1000206864253226884202D1FEF70FF901E0C2
:103A2000FEF7FCF800EBC00101EB001160686FF0DD
:103A300018078000B1FBF0F2B2FBF5F2B1FBF0F336
:103A40007A4303EB8202B1FBF0F306EB0212B2FB06
:103A5000F5F2B3FBF5F302F0F00202EB0312B1FB57
:103A6000F0F3B1FBF0F0B0FBF5F0784303EB80002E
:103A700006EB0010B0FBF5F0216800F00F001044D9
:103A80008860BDE8F08100000038014090F83910EE
:103A9000212901D0022070478168B1F5805F016A59
:103AA0000BD04A1C0262026809785160C18C491E21
:103AB0000904090CC1840ED017E009880268C1F31B
:103AC0000801516001690029016A02D0491C0162A4
:103AD000ECE7891CFBE70168CA6822F08002CA6033
:103AE0000068C16841F04001C160002070470000DB
:103AF000044810B5D0F828048047BDE810400248BB
:103B0000FEF714BDCC310020BC050020044810B5E0
:103B1000D0F828048047BDE810400248FEF706BDF3
:103B2000483A0020FC050020044810B5D0F82804CD
:103B30008047BDE810400248FEF7F8BC0036002080
:103B40003C060020FEE70907090E002804DB00F10F
:103B5000E02080F80014704700F00F0000F1E02032
:103B600080F8141D704702E008C8121F08C1002A1F
:103B7000FAD170477047002001E001C1121F002AEE
:103B8000FBD170477CB504460025012168460095AD
:103B900000F048FB0D4E306001A8019500F0E4FAFA
:103BA0000B4970600B480C60C1F82C040A48C1F83E
:103BB00030040A48C1F828040948C1F824042068E0
:103BC000C16841F01001C1607CBD000010030020FD
:103BD000CC310020053F0008F53E0008153F0008E5
:103BE000613E000810B51E4C86B04FF0FF31606892
:103BF00000F0E6FA002830D11A4810218172418283
:103C000008218182694600F03BFA012822D1BDF8E3
:103C1000000000F00F01000A00EB800001EB400102
:103C20001148A0F81013BDF8021001F00F02090AA4
:103C300001EB810102EB4101A0F81213BDF8041061
:103C4000A0F81413BDF80810A0F81613BDF80E1054
:103C5000A0F81813606800F08BFA06B010BD0000E1
:103C600010030020CC310020883E00207CB50446A3
:103C7000002501216846009500F0D4FA0D4E306011
:103C800001A8019500F070FA0B4970600B480C60B8
:103C9000C1F82C040A48C1F830040A48C1F82804C5
:103CA0000948C1F824042068C16841F01001C160CE
:103CB0007CBD00001803002000360020F93F0008FA
:103CC000E93F000809400008553F000810B50C4CBA
:103CD0004FF0FF31606800F073FA00280ED10948F8
:103CE0001021817241820A21818200F2344100F068
:103CF000C7F96068BDE8104000F03ABA10BD000096
:103D0000180300200036002038B50546002000903A
:103D10000121684600F086FA2549264C274A0860AA
:103D2000254804F58861C4E90050802020810120E5
:103D3000A072C4F82C24C4F82414214AC4F83024F6
:103D4000204AC4F82824204AC4F834241F4AC4F85E
:103D500038241F4AC4F83C2481F80001D4F8241404
:103D600081F80201D4F8241481F80401D4F8241451
:103D700081F80601D4F824144FF4FA70A1F8000574
:103D8000A1F80205A1F80405A1F80605206800685D
:103D9000C16841F01001C160D4F8300480474FF48D
:103DA000007204F120012068FEF73CFE38BD0000DF
:103DB00020030020483A002000140140F149000887
:103DC000E1490008014A00088D490008414A0008FD
:103DD000C54A00080C4810B54FF0FF31006800F0EC
:103DE0005DFA00280FD1094C2068FEF772FB2046CF
:103DF00000F064FD04F120012068BDE810404FF49C
:103E00000072FEF70FBE10BD20030020483A0020CC
:103E1000EFF30580002800D001207047FDF7B8FCC3
:103E2000FFF77CF9FEF7F8FFFEF74EFFFEF7A0FE66
:103E3000FEF724FFFFF786F8FFF7E8F8FFF702F92F
:103E4000FFF71CF9FFF736F9FEF79CFF00F087F942
:103E5000FEE701460020842900D0C81C70470000FE
:103E60002DE9F041214C074604F21E21B4F81E044E
:103E7000E0810D46204600F0E7F8B4F81E14207BE0
:103E80001B4E4855B4F81E04401C80B2A4F81E0412
:103E9000617B4155B4F81E040021401CA4F81E04A7
:103EA000306800F0FBF94FF4007204F11C01206847
:103EB000FEF7B8FDD4F82C048047B4F81E24294638
:103EC0002068FEF7FDFD3946306800F0E7F950B193
:103ED0005FF0000084F820042068FEF7FAFA94F8F6
:103EE0002004BDE8F0810120F4E70000CC3100207F
:103EF0001003002000224FF400610148FDF734BC9C
:103F0000000801400122D1020148FDF72DBC00004C
:103F1000000801400D4A82B0116808680368DB069A
:103F200011D5C368DB060ED5036840680090486B66
:103F300000684068C0F50070A2F81C0204480068E0
:103F400002B000F083B902B070470000CC3100200D
:103F5000100300202DE9F041214C074604F21E21F8
:103F6000B4F81E04E0810D46204600F06DF8B4F868
:103F70001E14207B1B4E4855B4F81E04401C80B212
:103F8000A4F81E04617B4155B4F81E040021401CB6
:103F9000A4F81E04306800F081F94FF4007204F1B7
:103FA0001C012068FEF73EFDD4F82C048047B4F8CD
:103FB0001E2429462068FEF783FD3946306800F04C
:103FC0006DF950B15FF0000084F820042068FEF71E
:103FD00080FA94F82004BDE8F0810120F4E70000A5
:103FE000003600201803002000224FF480610148B1
:103FF000FDF7BABB00140140012291020148FDF710
:10400000B3BB0000001401400D4A82B0116808687B
:104010000368DB0611D5C368DB060ED5036840686C
:104020000090486B00684068C0F50070A2F81C0260
:104030000448006802B000F009B902B070470000FF
:10404000003600201803002070B5FF220B4C0273CD
:10405000427304F580750AE0027B11F8013B5A4077
:104060000282437BA65C73400373AA5C4273C289DD
:10407000531EC381F0D2808940BA70BD005E000833
:104080002DE9F0410E460321C1720446837A0025D2
:1040900000F21E2001222B541154628A0223170AB7
:1040A0001F540A54A18A04230F0A05221F54062311
:1040B000A4F81E341154D4F824144FF4FA7088472D
:1040C000E8B1204600F01DF8C8B1A07FA18AB0EB8E
:1040D000410F14D165830BE004EB400191F82020DF
:1040E000C97F02EB012126F81010608B401C608311
:1040F000608BA18A8842EFD30120BDE8F0810020C7
:10410000FBE710B50446B0F81C0205281CD3801E3E
:10411000E08104F11C012046FFF796FFB4F81C0271
:1041200004F11A01227B415C8A420DD104F11B018A
:10413000627B405C824207D1207FA17A884203D112
:10414000607FE17A884201D0002010BD012010BDBF
:1041500010B500B9012001F021F8002010BD10B504
:1041600001F0BCF8002010BD012001F075B900007D
:1041700038B5002405460094FFF74AFE90B1694621
:10418000284601F093FA012801D0FF2038BD00989D
:1041900088B10A494FF080500860BFF34F8FBFF3DA
:1041A0006F8F08E000231A461946284601F0CEF921
:1041B000012800D0FF24204638BD000004ED00E0B7
:1041C00038B505004FF0000000900FD00024481CC7
:1041D0000ED001B10C46FFF71BFEB8B16A460021B4
:1041E000284601F0B1FA012816D104E0802038BD3C
:1041F0004FF0FF34EFE7009880B109494FF080504D
:104200000860BFF34F8FBFF36F8F07E0214628464A
:1042100001F0E8FA012801D0FF2038BD002038BDA8
:1042200004ED00E010B5012901D0002010BD0322EB
:104230000021012001F022F9040004D000231A46D5
:10424000194601F083F9204610BD000038B500245E
:1042500005460094FFF7DCFD90B16946284601F061
:1042600025FA012801D0FF2038BD009888B10A49FD
:104270004FF080500860BFF34F8FBFF36F8F08E09F
:1042800000231A461946284601F060F9012800D09B
:10429000FF24204638BD000004ED00E038B50500DD
:1042A0004FF0000000900FD00024481C0ED001B148
:1042B0000C46FFF7ADFDB8B16A460021284601F073
:1042C00043FA012816D104E0802038BD4FF0FF34B6
:1042D000EFE7009880B109494FF080500860BFF3C4
:1042E0004F8FBFF36F8F07E02146284601F07AFA1F
:1042F000012801D0FF2038BD002038BD04ED00E0CA
:104300003EB504460D46B0F90800FFF7A2FD02A92C
:10431000CDE90001208A2B4682B2D4E9001001F0D9
:1043200057FB012801D000203EBD02983EBD000091
:104330002DE9F041184C0F46054666692068001DBE
:1043400000F048FE38B9206890F82C100120884011
:10435000A1698143A161681C07D137B12168BDE81B
:10436000F0410E48091D00F06EBE20683544B5428C
:104370004560216805D2A068BDE8F041091D00F044
:104380004ABE6068091D00F046FE206B854200D2DF
:104390002563BDE8F081000028000020B809002056
:1043A0002DE9F041054600F05BFE2E4C2069401CD3
:1043B000206120682C4F10B1E06940B32DE02560EA
:1043C0002069012829D1002606EB860007EB800032
:1043D00000F013FE761C072EF6D323488C3000F035
:1043E0000CFE2148A03000F008FE1F48B43000F059
:1043F00004FE1D48C83000F000FE1B48DC3000F011
:10440000FCFD19488C3060601430A06005E0206825
:10441000E96AC06A884200D82560E06A401CE06210
:10442000E96A0120A26988401043A06101EB810084
:1044300007EB8000291D00F006FE00F031FEE06968
:1044400000280CD02068E96AC06A884207D2074970
:104450004FF080500860BFF34F8FBFF36F8FBDE800
:10446000F081000028000020DC08002004ED00E0BE
:1044700030B4026C0B46002A0BD0C1681144C160F5
:104480004468A14201D30168C16030BC1846FBF703
:10449000C7BE30BC70472DE9F041856B1746044616
:1044A0000026026C82B1C7B1E068FBF7B9FEE16893
:1044B000206C091AE1602268914202D26168081AF0
:1044C000E060022F16D017E02068A8B9606801F0FC
:1044D0001DFB0646002060600EE0A068FBF7A0FE12
:1044E000216CA0680844A0606168884204D32068F9
:1044F000A06001E005B16D1E6D1CA5633046BDE8EE
:10450000F08110B50446006B00F0DEFD2046BDE8EA
:10451000104000F0D9BD000010484FF42051420770
:1045200006D0C01D0D4920F00700411AC1F52051E9
:104530000B4A00230144C2E900030839103A21F074
:10454000070111604B600B600B1AC0E90013936008
:104550004FF000405360D06070470000CC0900204D
:1045600074000020144E154CA6F1C8074FF0805877
:10457000DFF84C9012E000BF00F072FDF068C568F3
:10458000281D00F027FD2069401E2061E068401EC4
:10459000E06000F085FD2846FFF7B3FFE0680028E3
:1045A000EAD138680128F9D9C9F80080BFF34F8FE4
:1045B000BFF36F8FF2E70000A4090020280000205D
:1045C00004ED00E02DE9F0479A46DDE909848146D3
:1045D0006FF00303206B03EB82021044089D20F070
:1045E0000706700707D0502080F31188BFF34F8F64
:1045F000BFF36F8FFEE723180A5C83F834200A5C50
:1046000012B1401C1028F6D3002784F84370072D00
:1046100000D30625E562C4E91157201D00F0F8FC1F
:1046200004F1180000F0F4FC2461C5F10700646295
:10463000A061E76484F8507052464946304600F065
:104640000FF92060B8F1000F01D0C8F80040BDE8B4
:10465000F087000030B5114900E011460A68824237
:10466000FBD34B685C18844203D14068184448600F
:10467000084643681C18944209D1084C103C246831
:10468000A24209D052681A4442600A681268026065
:10469000814200D0086030BD0460F9E7740000205A
:1046A00010B5044600F0DCFCA06B28B15FF00004FC
:1046B00000F0F6FC204610BD0124F9E706484168E9
:1046C000096829B14168C968C968496801637047C8
:1046D0004FF0FF31FAE7000028000020084840684A
:1046E000401C4FF0500080F3118804D0BFF34F8F6F
:1046F000BFF36F8FFEE7BFF34F8FBFF36F8FFEE700
:104700007C0000202DE9F041044600F0A9FC94F95A
:10471000455004F1240609E0606A48B1304601F0D2
:104720008BFA08B100F068FD6D1E6DB2002DF3DC50
:104730004FF0FF3684F8456000F0B2FC00F090FCCA
:1047400094F9445004F1100709E0206948B1384653
:1047500001F072FA08B100F04FFD6D1E6DB2002D30
:10476000F3DC84F84460BDE8F04100F099BC00003F
:104770002DE9F0410546002700F0E4FD314E306898
:1047800008B9FFF7C9FEF06805424BD1C5B308353B
:1047900068070ED005F00700C0F10800054468075F
:1047A00007D0502080F31188BFF34F8FBFF36F8F76
:1047B000FEE72DB37068854234D822481030014698
:1047C0000C6801E020460C466168A94202D22168CB
:1047D0000029F7D131688C4224D007682168016034
:1047E00060680837411B10290FD96019420708D0AB
:1047F000502080F31188BFF34F8FBFF36F8FFEE718
:1048000010E041606560FFF725FF61687068401A3D
:104810007060B268904200D2B060F068014300203E
:10482000C4E9000101F042FA780707D0502080F374
:104830001188BFF34F8FBFF36F8FFEE73846BDE897
:10484000F0810000640000200449086818B108687D
:10485000826C521C826408687047000028000020A7
:1048600010B5031F4FF080741C601B1F21F0010165
:104870001960191F024B0B60143940380A6010BDD3
:10488000DD46000870B5FF220B4C0273427304F53D
:1048900080750AE0027B11F8013B5A400282437B9B
:1048A000A65C73400373AA5C4273C289531EC38122
:1048B000F0D2808940BA70BD005E000870B5044631
:1048C000B0F82002002508285FD3801EE08104F1A3
:1048D00020012046FFF7D6FFB4F8200204F11E01A4
:1048E000227B415C8A4250D104F11F01627B405C13
:1048F00082424AD194F82010A07A814245D194F89E
:1049000021000121E07202281FD0012821D00428B3
:1049100023D0032825D0052827D00F2829D0062802
:104920002BD010282DD004F22220A27A2A5494F8F9
:104930002120022380320A540322A4F8222419548D
:10494000D4F83404BDE870400047204600F05CF91C
:10495000F6E7204600F0F8F8F2E7204600F007FA04
:10496000EEE7204600F0AEF9EAE7204600F0CCFA88
:10497000E6E7204600F050FAE2E7204600F0F8FAB9
:10498000DEE7204600F084FADAE770BD70B5134C1C
:1049900004F22221B4F82204E0810D462046FFF7FC
:1049A00071FFB4F82214207B4855B4F82204401C4F
:1049B00080B2A4F82204617B4155B4F82204401C63
:1049C000A4F82204D4F82C048047B4F82224294601
:1049D0002068BDE87040FEF773B80000483A002038
:1049E0000248002201894068FCF7BEBE483A002018
:1049F0000248012201894068FCF7B6BE483A00200F
:104A00000D4A82B0116808680368DB0611D5C368D7
:104A1000DB060ED5036840680090486B006840686C
:104A2000C0F50070A2F820020448006802B0FFF749
:104A30000DBC02B070470000483A0020200300205F
:104A40001F4810B5C17A0022052903D00F2915D1BE
:104A5000C28330E0C18A072910D8194990F8243060
:104A600091F82500D1F82444C98AFF2B214406D0AF
:104A7000002B03D1002801D181F8002110BD0028AE
:104A8000FCD1012081F8000110BDC28A5318072B08
:104A90000ED800EBD10301F0070493F8273001F59D
:104AA0008071E340D0F8244403F0010322445354BE
:104AB000C18B491CC183C18B028B9142E5D310BDD0
:104AC000483A002030B51F484FF42F734FF4A061CF
:104AD000C27A062A03D0102A14D100222BE0C48AFD
:104AE000032C0FD890F8252090F8245002EB0522D3
:104AF00092B2A2F596759D4204D8D0F8240401EB39
:104B00004401425230BDC48A1444032C11D800EB36
:104B1000420292F8285092F8272005EB022292B226
:104B2000A2F596759D4204D8D0F8245401EB4404B4
:104B30002A53C28B521CC283048B92B2A242E2D38C
:104B400030BD0000483A0020F0B50023827A00F220
:104B500022210124A0F822445A5490F8235090F8BE
:104B60002220032705EB022295B2458290F82560AA
:104B700090F8242006EB022292B2828205EB020C0E
:104B8000022690F82150BCF5807F05D98035655408
:104B9000A0F822747654F0BD5FEA427C4FEAD2025C
:104BA00000D0521C42836554A0F822747254C3830F
:104BB00024E0540700D10377848AA24208D2458AB0
:104BC000D0F82444254402F580742C5D012C02D0D9
:104BD000047F640803E0047F802545EA54045207FB
:104BE0000477B2F1604F06D1B0F82224E5B2541C2C
:104BF000A0F822445554C28B521CC283C28B448BF2
:104C0000B2EBC40FD5D3F0BDF0B50025827A00F227
:104C100022210124A0F822446A5490F8232090F81D
:104C20002230032702EB032293B2438290F82560DF
:104C300090F8242006EB022292B2828203EB020C4F
:104C4000022690F82130BCF5807F05D9803363546B
:104C5000A0F822747654F0BD5FEA427C4FEAD2029B
:104C600000D0521C42836354A0F822747254C5834E
:104C700022E0530700D10577838A9A4206D2438AFD
:104C8000D0F824441344E35C012B02D0037F5B087B
:104C900003E0037F802444EA530352070377B2F111
:104CA000604F06D1DCB2B0F822345A1CA0F822249E
:104CB0005C54C28B521CC283C28B438BB2EBC30FBA
:104CC000D7D3F0BDF0B50027827A00F2222101256A
:104CD000A0F822547A5490F8232090F8223002EB66
:104CE000032292B2428290F8253090F8244003EBE0
:104CF00004239EB2868202EB060C0223032490F862
:104D00002120BCF5807F05D980326A54A0F8224466
:104D10005B54F0BD6A547200A0F822445A54C78311
:104D200020E0438AD0F824441A444FF4A06303EBF4
:104D30004202A25A150AB0F82224541CA0F82244B8
:104D40005554C28B448A224403EB4202D0F82434E7
:104D50009C5CB0F822345A1CA0F822245C54C28B0C
:104D6000521CC283C28B838A9A42DAD3F0BDF0B55B
:104D70000027827A00F222210125A0F822547A54D9
:104D800090F8232090F8223002EB032292B2428264
:104D900090F8253090F8244003EB04239EB28682DD
:104DA00002EB060C0223032490F82120BCF5807F3F
:104DB00005D980326A54A0F822445B54F0BD6A548D
:104DC0007200A0F822445A54C78320E0438AD0F8E6
:104DD00024441A444FF4407303EB4202A25A150ACA
:104DE000B0F82224541CA0F822445554C28B448AA3
:104DF000224403EB4202D0F824349C5CB0F8223405
:104E00005A1CA0F822245C54C28B521CC283C28B51
:104E1000838A9A42DAD3F0BD2DE9F0030022837A27
:104E200000F222210124A0F82244535490F823C018
:104E300090F822704FF003090CEB072292B2C28265
:104E400090F8256090F8245006EB05239BB203836D
:104E500002EB0308022390F82120B8F5807F07D9E0
:104E600080326254A0F822945B54BDE8F00370478E
:104E700062545F54042309F801C005225D540623DF
:104E8000A0F822345654D0F83804BDE8F0030047A7
:104E90002DE9F0030022837A00F222210124A0F8F8
:104EA0002244535490F823C090F822704FF0030925
:104EB0000CEB072292B2C28290F8256090F8245041
:104EC00006EB05239BB2038302EB0308022390F851
:104ED0002120B8F5807F07D980326254A0F822944F
:104EE0005B54BDE8F003704762545F54042309F833
:104EF00001C005225D540623A0F822345654D0F890
:104F00003C04BDE8F00300472DE9F0410025827A1A
:104F100000F222210123A0F822346A5490F823E001
:104F200090F822C002270EEB0C2296B2C682032410
:104F300090F82120761CB6F5807F06D980325A542D
:104F4000A0F822447F54BDE8F0815A5407F801C00C
:104F5000042204F801E090F824400523545406226A
:104F6000A0F822245D54D0F83804BDE8F041004791
:104F7000F0B40022847A00F222210123A0F8223426
:104F8000545490F8237090F822C0032407EB0C22AD
:104F900096B2C682022290F82150761CB6F5807F28
:104FA00006D980355D54A0F822445254F0BC7047B5
:104FB0005D5402F801C00422675410F8244F545481
:104FC000052344780622A0F8FE235C54D0F8180488
:104FD000F0BC0047D0E9013201699A60D0E90123B1
:104FE0005A604A68824201D182684A6000220261A6
:104FF0000868401E08600868704700F108014FF01B
:10500000FF32C0E90112C1600161002101607047F7
:1050100000210161704730B50B685A1C02D000F1C5
:10502000080202E0026904E02246546825689D42B5
:10503000FAD953684B6099608A60516008610168D1
:10504000491C016030BD42684A6093688B60936878
:105050005960916008610168491C01607047000057
:10506000502080F31188BFF34F8FBFF36F8F0A4931
:105070004868401C486001280CD10848006810F0BE
:10508000FF0F07D0502080F31188BFF34F8FBFF37D
:105090006F8FFEE7704700007C00002004ED00E009
:1050A0000849486828B1401E486001D180F3118842
:1050B0007047502080F31188BFF34F8FBFF36F8F7D
:1050C000FEE700007C00002070B5002827D0144DBA
:1050D000A0F108046168E868014207D1502080F31C
:1050E0001188BFF34F8FBFF36F8FFEE722683AB18D
:1050F000502080F31188BFF34F8FBFF36F8FFEE70F
:105100008143616000F01EF9606869680844686066
:105110002046FFF79FFABDE8704000F0C7BD70BDA4
:10512000640000204FF0E020002101618161054909
:105130004FF47A720968B1FBF2F1491E416107210F
:10514000016170472400002010B5FBF743F81149B6
:1051500010280ED300F1E02090F8F0030A78904276
:1051600007D2502080F31188BFF34F8FBFF36F8FAA
:10517000FEE709480068896800F4E060884207D9C2
:10518000502080F31188BFF34F8FBFF36F8FFEE77E
:1051900010BD00007C0000200CED00E010B5020006
:1051A00014D00F48806B38B1502080F31188BFF3C2
:1051B0004F8FBFF36F8FFEE700F0C4F80021104659
:1051C000FFF7B6F800F072FD002807D105494FF04F
:1051D00080500860BFF34F8FBFF36F8F10BD00008A
:1051E0002800002004ED00E002498A6A0260496953
:1051F0004160704728000020014901204862704743
:105200002800002010B50C4650B109490968183132
:10521000FFF701FF2046BDE810400121FFF788B8E5
:10522000502080F31188BFF34F8FBFF36F8FFEE7DD
:105230002800002070B504004BD0A26CA2B1606CB5
:10524000884200D30146E06A884242D0012A40D118
:10525000204D2A6894420FD1502080F31188BFF36B
:105260004F8FBFF36F8FFEE7502080F31188BFF39D
:105270004F8FBFF36F8FFEE7E162A269002A02DB66
:10528000C1F10701A161144E00EB8000616906EBDA
:10529000800081421DD1201DFFF79CFE012150B9E5
:1052A000E06A00EB800256F8222022B9AA6901FACE
:1052B00000F08243AA61E06AAA6981401143A961B2
:1052C00000EB800006EB8000211DBDE87040FFF779
:1052D000BABE70BD28000020DC0800201CB51548AF
:1052E0000024CDE900402346802213A1144800F099
:1052F0006FFB012809D0401C1AD1502080F311887F
:10530000BFF34F8FBFF36F8FFEE7502080F31188FC
:10531000BFF34F8FBFF36F8F06484FF0FF31343824
:1053200001630121C1614461BDE81C4000F040B847
:105330001CBD00005C00002049444C4500000000FA
:10534000654500080248816B491C81637047000075
:10535000280000201448816B11B10121416270477F
:10536000002141628169B1FA81F1C1F11F0101EBB4
:1053700081020E4951F822306BB101EB820101F13B
:1053800008034A6852684A609A4201D152684A60EA
:10539000D16801607047502080F31188BFF34F8FB0
:1053A000BFF36F8FFEE7000028000020DC0800201C
:1053B0001CB5264908780190FF20087008788DF800
:1053C00000009DF800009DF8002000F0F0009042E1
:1053D00007D0502080F31188BFF34F8FBFF36F8F3A
:1053E000FEE79DF800001A4B00F0500018700720EF
:1053F000986005E09DF8002052008DF80020401EC6
:105400009DF800201206F5D49860032807D050209C
:1054100080F31188BFF34F8FBFF36F8FFEE74FF418
:1054200040709860019808700A48016841F4700162
:105430000160016841F070410160FFF773FE0020D8
:105440005860FAF791FE00201CBD000000E400E067
:105450007C00002020ED00E010B502460021012074
:1054600000F00CF8041E07D00021416001600B46DB
:105470000A46C16000F06AF8204610BD70B50E46BD
:10548000050013D0D6B105FB06F04830FFF770F9E0
:10549000040009D004F1480120468EB10160C0E942
:1054A0000F56012100F00EF8204670BD502080F309
:1054B0001188BFF34F8FBFF36F8FFEE70020E4E743
:1054C0000060ECE770B50D46040025D0FFF7C8FD7D
:1054D000D4E90F20216802FB001161600021A16363
:1054E0002168A1600A46D4E90F01401E00FB01219A
:1054F000E16021464FF0FF3001F8440F487004F19D
:1055000010008DB1FFF779FD04F12400FFF775FD60
:10551000FFF7C6FD012070BD502080F31188BFF356
:105520004F8FBFF36F8FFEE721690029F0D000F0A5
:1055300083FB0028ECD004494FF080500860BFF393
:105540004F8FBFF36F8FE3E704ED00E02DE9FF47D6
:1055500082B01D468A464FF00008040003D0BAF11D
:10556000000F08D011E0502080F31188BFF34F8F57
:10557000BFF36F8FFEE7206C38B1502080F31188A5
:10558000BFF34F8FBFF36F8FFEE7022D0AD1E06BA1
:10559000012807D0502080F31188BFF34F8FBFF34D
:1055A0006F8FFEE700F040FA3F4F4FF000094FF0D9
:1055B000805648B9049838B1502080F31188BFF361
:1055C0004F8FBFF36F8FFEE7FFF74AFDA06BE16BD4
:1055D000884207D3022D05D00498D0B1B8F1000F4E
:1055E0001AD01EE02A4651462046FEF754FF616A53
:1055F00019B104F1240000F01FFB20B13E60BFF39D
:105600004F8FBFF36F8FFFF74BFD012006B0BDE852
:10561000F087FFF745FD22E06846FFF7E5FD4FF014
:105620000108FFF73DFDFFF78DFEFFF719FD94F927
:105630004400401C01D184F8449094F94500401C7A
:1056400001D184F84590FFF72BFD04A9684600F0CE
:1056500085F930B12046FFF755F800F027FB002010
:10566000D4E7FFF7FDFCA06BE16B884213D1FFF795
:1056700017FD04F110000499FFF7C4FD2046FFF761
:1056800041F800F013FB00289ED13E60BFF34F8F1E
:10569000BFF36F8F98E7FFF703FD2046FFF732F85F
:1056A00000F004FB90E7000004ED00E070B50E464A
:1056B000040009D0206C78B1502080F31188BFF32A
:1056C0004F8FBFF36F8FFEE7502080F31188BFF339
:1056D0004F8FBFF36F8FFEE7206848B9606838B11D
:1056E000502080F31188BFF34F8FBFF36F8FFEE719
:1056F000FFF72AFD5020EFF3118580F31188BFF3E7
:105700004F8FBFF36F8FA16BE06B884218D994F96C
:105710004500491CA163411C04D0401C84F845008D
:1057200001200EE0606A0028FAD004F1240000F0A5
:1057300083FA0028F4D0002EF2D001203060EFE789
:10574000002085F3118870BD2DE9F0479046894609
:10575000040003D0B9F1000F08D011E0502080F30D
:105760001188BFF34F8FBFF36F8FFEE7206C38B106
:10577000502080F31188BFF34F8FBFF36F8FFEE788
:10578000FFF7E2FC5020EFF3118680F31188BFF39E
:105790004F8FBFF36F8FA76BF7B194F94450494611
:1057A0002046FEF765FE7F1EA763681C04D06D1CB3
:1057B00084F84450012010E020690028FAD004F158
:1057C000100000F039FA0028F4D0B8F1000FF1D041
:1057D0000121C8F80010EDE7002086F31188BDE82C
:1057E000F08700002DE9F343002683B0040035461E
:1057F00009D0206C78B1502080F31188BFF34F8F0F
:10580000BFF36F8FFEE7502080F31188BFF34F8FF7
:10581000BFF36F8FFEE700F007F9DFF83C814FF030
:1058200000094FF0805748B9049838B1502080F3F0
:105830001188BFF34F8FBFF36F8FFEE7FFF710FCA8
:10584000A06BC8B1401EA063206810B9FEF7FCFF32
:105850006060206950B104F1100000F0EDF928B14A
:10586000C8F80070BFF34F8FBFF36F8FFFF718FCBE
:10587000012005B0BDE8F083049808B166B10FE0DF
:105880003DB1502080F31188BFF34F8FBFF36F8F6E
:10589000FEE7FFF705FC5DE06846FFF7A5FC012683
:1058A000FFF7FEFBFFF74EFDFFF7DAFB94F944002C
:1058B000401C01D184F8449094F94500401C01D16A
:1058C00084F84590FFF7ECFB04A9684600F046F821
:1058D0000028204612D0FEF715FF00F0E7F9204619
:1058E000FEF7DEFE0028A9D09DB3FFF7B9FB606A82
:1058F00050B3206B0068C0F1070126E0FEF7D0FE30
:10590000E0B1206838B9FFF7ABFB606800F04AF9F6
:105910000546FFF7C5FB04F124000499FFF772FC6C
:105920002046FEF7EFFE00F0C1F9002886D1C8F846
:105930000070BFF34F8FBFF36F8F7FE72046FEF7F6
:10594000E1FE00F0B3F979E700216068FFF772FC2F
:105950009FE7FFE700208CE704ED00E02DE9F04130
:105960000C46050011D0C4B1FFF77AFB174B5A69FA
:105970006E682068911B471C17D02F689B6A9F4256
:1059800019D0964217D8012410E0502080F31188D6
:10599000BFF34F8FBFF36F8FFEE7502080F3118866
:1059A000BFF34F8FBFF36F8FFEE70024FFF778FB45
:1059B0002046BDE8F081884205D9401A206028467B
:1059C000FFF712FCF1E700202060DCE72800002050
:1059D0002DE9FF5F8346DDE90E87994616468A4624
:1059E0009000FEF7C5FE05001AD05420FEF7C0FE59
:1059F000040012D025630021CDE90241CDE90087E2
:105A00004B46324651465846FEF7DCFD2046FEF72F
:105A1000C7FC012004B0BDE8F09F2846FFF754FB07
:105A20004FF0FF30F6E700000548C16919B1806BFF
:105A300018B1002070470120704702207047000015
:105A4000280000202DE9F0412E4C0027A06B40B12A
:105A5000206A401C2062606A00B101273846BDE818
:105A6000F0816669761C666113D16068006838B1A0
:105A7000502080F31188BFF34F8FBFF36F8FFEE785
:105A80006068A1686160A060A06A401CA062FEF727
:105A900015FE206BDFF87080864209D360680068CD
:105AA00080B16068C068C568686886420DD22063AE
:105AB0002068C06A00EB800158F821000128CAD98B
:105AC0000127C8E74FF0FF30F1E7281DFFF782FA02
:105AD000A86A18B105F11800FFF77CFAE86A0121FD
